:100F4200202020202020202020204552524F5221B4
:100F5200003D00315E002000000000200000000083
:0B0F6200000000000000000000000084
:100E41000146001034000000000000000000000016
:100E510000000000000B192000000000000000004D
:100E6100000001440001470010243738392F343580
:100E7100362A3132332D302E3D2B110820202020EF
:0D0E810020202020202020202020202000E4
:060EDE007B007A00790898
:100EE4008B638A648965E4F545AB63AA64A9658567
:100EF4004582758300120112B42005AF457E00229D
:0C0F04000545E545B410E27EFF7FFF22AA
:100FB100120EDE8F45E545D39400400674072FF8E5
:0E0FC10076207B007A007908E4FDFF020C9593
:100F1000E4F54574082545F876200545E545B41007
:100F2000F2E4F546FB7A007908FDFF120C957B0090
:100F30007A0079087D01E4FF120C957FF47E0102AE
:020F40000F920E
:10101D007BFF7A0F79427D01E4FF120C957FF47E00
:04102D0001020F921B
:0805C9008F488B498A4A894BD7
:1005D100120EE48F4CE548642A6006E548642F70EA
:1005E1004CE54C607A7E0024FFF582EE34FFF58302
:1005F100AB49AA4AA94B120112B428030207B57EDE
:100601000074FF254CF582EE34FFF583AB49AA4A0D
:10061100A94B120112FF642B600EEF642D6009EFEC
:10062100642A6004EFB42F030206BD8035E54864F7
:100631002D703EE54C700302073FE54C24FFFFE4BB
:1006410034FFFEAB49AA4AA94B8F82F583120112EE
:10065100FDB42B078F828E830207FAEDB42D0302BE
:1006610007B5AB49AA4AA94B854C8275830002079D
:10067100FAE548642B6003020735E54C60177E00FC
:1006810024FFF582EE34FFF583AB49AA4AA94B1248
:100691000112B428030207B57E0074FF254CF582D0
:1006A100EE34FFF583AB49AA4AA94B120112FF644C
:1006B1002A6009EF642F6004EFB42B107E0074FFF1
:1006C100254CF582EE34FFF5830207FAAF4C7E002C
:1006D10074FF2FF582EE34FFF583AB49AA4AA94B8B
:1006E100120112642D703E74FE2FF582EE34FFF577
:1006F10083120112FF642B6013EF642D600EEF640F
:100701002A6009EF642F6004EFB428030207B57E65
:100711000074FF254CF582EE34FFF583AB49AA4AFC
:10072100A94B0207FAAB49AA4AA94B854C827583AA
:10073100000207FAE54864287045E54C700EAB49A4
:10074100AA4AA94B854C82F5830207FA7E0074FF01
:10075100254CF582EE34FFF583AB49AA4AA94B1229
:100761000112FF642B600EEF642D6009EF642A60B3
:1007710004EFB42F08854C82758300807C8035E5B9
:100781004864297043E54C700280297E0074FF257E
:100791004CF582EE34FFF583AB49AA4AA94B12010D
:1007A10012FF642B600EEF642D6009EF642A600470
:1007B100EFB42F067FF47E018030AB49AA4AA94BE2
:1007C100854C827583008031E548642E60307E005F
:1007D10074FF254CF582EE34FFF583AB49AA4AA993
:1007E1004B120112B429067FF40E020F92AB49AAF3
:0E07F1004AA94B854C82758300E548120184AD
:0107FF0022D7
:0A0800008E638F648B658A6689673A
:10080A00E4F568F569F56AF56BC3E563648094807D
:10081A00501FC3E49564F564E49563F5630569E5DF
:10082A0069AE687002056814F5828E83742D120110
:10083A0084AE63AF647C007D0A1201B8ED2430FFF8
:10084A00AB65AA66A9670569E569AC6870020568BF
:10085A0014F5828C83EF120184AE63AF647C007D51
:10086A000A1201B88E638F64E564456370C3AB6591
:10087A00AA66A9678569828568831201841200F9CC
:10088A00B42D0E756A00756B010569E5697002057C
:10089A0068AE68AF697C007D021201B8C3E56B9F40
:1008AA00EE6480F8E56A6480984003020958E569B5
:1008BA0024FFFFE56834FFFEC3EF956BFFEE956AF0
:1008CA00AB65AA66A9678F82F583120112856B82CE
:1008DA00856A8312013FE56924FFFFE56834FFFE5C
:1008EA00C3EF956BFFEE956A8F82F583120112FFB3
:1008FA00856B82856A83120112C39FFFE56924FF13
:10090A00FDE56834FFFCC3ED956BFDEC956AFC8D43
:10091A0082F583EF120184E9256BF9EA356AFAC098
:10092A0003C002C0011200F9FFAB65AA66A9678D70
:10093A00828C83120112FEC3EF9ED001D002D00333
:10094A00120172056BE56B7002056A02089BAB65C2
:04095A00AA66A96779
:01095E002276
:060B36008B638A648965EF
:100B3C0075692BE4F56DF56CF56BF56A1200F9B47B
:100B4C002D0E74012565F565E43564F56475692D24
:100B5C00AB63AA64A9651200F9FFC3648094B0402A
:100B6C0061D3EF648094B95059E47F0AFEFDFCAB6D
:100B7C006DAA6CA96BA86A1201EEA804C005C00688
:100B8C00C007AB630565E565AA647002056414F9DA
:100B9C001200F9FF3395E0FEFDFCD003D002D0012A
:100BAC00EB2FFFEA3EFEE93DFDE83CFCEF24D0F5DF
:100BBC006DEE34FFF56CED34FFF56BEC34FFF56A3C
:100BCC00808EE569B42D13AF6DAE6CAD6BAC6A1253
:100BDC00023D8F6D8E6C8D6B8C6AAB63AA64A965BC
:100BEC00C003C002C001AB66AA67A96812024BAE73
:030BFC006CAF6D6E
:010BFF0022D3
:10100800EFC39400400C74192FF8E6B42801221F8E
:0510180080EE7F0B22B9
:080A4D00E55C14FF155DAD5DD1
:040A55008F638D64BA
:100A590078657C007D007BFF7A0F79587E007F05E1
:100A69001200D374192563F8E624D6606024FD606A
:100A79003024FE7003020B0024046003020B30E5EE
:100A89006425E02434F8E6FE08E6FFE56425E02461
:100A990032F808EF26F618EE36F674192563020BBC
:100AA9002BE56425E02432F8C000E6FE08E6FFE500
:100AB9006425E02434F8E6FC08E6FDC3EF9DFFEE6B
:100AC9009CD000F608A607741925648055E56425AD
:100AD900E02432F8C000E6FE08E6FFE56425E024DC
:100AE90034F8E6FC08E6FD1201A6D000A60608A621
:100AF9000774192564802BE56425E02434F8E6FCA5
:100B090008E6FDE54525E02432F8E6FE08E6FF1291
:100B190001B8E56425E02432F8A60608A607741989
:0C0B29002564F87620800302101DAF63E5
:010B3500229D
:10030A00784C7C007D007BFF7A0F795D7E007F1040
:10031A001200D3E4F55CF55DF55EF55FF560756195
:10032A0000756208F55B120EDE74082FF9E5608528
:10033A0061838562827007E965827002E5837003D2
:10034A000205A1AB60AA61A9621200F9FF642B60E1
:10035A002FEF642A602AEF642F6025EF642860205B
:10036A00EF6429601B756600756700756860120B7B
:10037A0036AD5D055DED25E02434F8A60608A6072E
:10038A00120EDE74082FF9E4FAFBE56085618385B5
:10039A0062827007E965827002E583700EE55C701F
:1003AA00030205A1120A4F8F5C80F2AB60AA61A911
:1003BA00621200F9FF642B601CEF642D6017EF6472
:1003CA002A6012EF642F600DEF64286008EF642939
:1003DA006003020576E55C701EEFB42804055E80B2
:1003EA0007EFB42903020573AB600562E562AA61EF
:1003FA00703305610205157418255CF8E6642870E7
:10040A0027AB60AA61A9621200F9FFB42804055E4D
:10041A008007EFB42903020573AB600562E562AA9F
:10042A006170020561020515AB60AA61A96212003A
:10043A00F9FF642B6005EF642D703CE55E601EAF2A
:10044A005C1210088F5FE55F2401FFE433FEE55C70
:10045A006F7001EE6012120A4D8F5C80E9E55C60F4
:10046A0007120A4F8F5C80F5AB600562E562AA61EC
:10047A0070020561020515AB60AA61A9621200F952
:10048A00FF642A6005EF642F7059E55E602EAF5C49
:10049A001210088F5FE55F2401FFE433FEE55C6F0D
:1004AA007001EE60307418255CF8E6FF642B602555
:1004BA00EF642B6020120A4D8F5C80D9E55C6015D1
:1004CA002418F8E6FF642B600CEF642D6007120A0B
:1004DA004D8F5C80E7AB600562E562AA6170020538
:1004EA00618028AB60AA61A9621200F9FF642870D2
:1004FA002DEFB42804055E8006EFB42902806AABAA
:10050A00600562E562AA617002056114F91200F9D8
:10051A00FFAE5C055C74192EF8A6070203B5AB6042
:10052A00AA61A9621200F9642960030203B5E55EB3
:10053A006037155EAF5C1210088F5FE55F2401FF1C
:10054A00E433FEE55C6F7001EE6007120A4D8F5CC2
:10055A0080E9155C7419255CF8762074012562F52A
:10056A0062E43561F5610203B502101D120EDE74F4
:10057A00082FF9E4FAFBE5608561838562827007DA
:10058A00E965827002E5836003020330E55C600777
:10059A00120A4F8F5C80F57B007A00794CAF35AE3A
:1005AA00341208007BFF7A0F79537D01E4FF120CA5
:0E05BA00957B007A00794C7D017F01120C9533
:0105C8002210
:100C0000E4F548F549F54AF54B754601FB120EE04F
:100C100074072FF8E6642B602F120EDE74072FF88E
:100C2000E6642D6023120EDE74072FF8E6642A6056
:100C300017120EDE74072FF8E6642F600B120EDE1B
:100C400074072FF8E6B4281012101D7BFF7A0F7975
:100C5000557D01E4FF020C95E4F54574082545F83F
:100C6000E6FFB4280A0549E54970100548800CEFF5
:100C7000B42908054BE54B7002054A0545E545B426
:100C800010D9E549654B7004E548654A60030210D8
:040C90001D12030A24
:010C9400223D
:100D2800121031E4FF120E928F4712095F8F44E5CB
:100D380046600AE547B401EB120F1080E6E5472448
:100D4800FE600F1460111460182403702B120F102A
:100D58008026120FB180217B007A0079087F2880D5
:100D6800087B007A0079087F291205C97B007A0080
:100D78007908E4FDFF120C95E5446022640F601EBB
:100D880074232544F8E6FF7B007A0079081205C928
:100D98007B007A007908E4FDFF120C958085E54414
:0D0DA800640F6003020D2B120C00020D2BD6
:100FED00C2A6C2A5C2A78F807F017E00120FCFD2ED
:0B0FFD00A77F017E00120FCFC2A722C9
:0A0F6D00AB6BAA6CA96D1200F9FF2E
:100F7700D2A6C2A5C2A78F807F017E00120FCFD253
:0B0F8700A77F017E00120FCFC2A7223F
:101031007F38120FED7F0C120FED7F06120FED7F3F
:0410410001020FEDAC
:080C95008F6A8B6B8A6C896D7C
:100C9D00E4F56EEDD394014003020D27E56A940F40
:100CAD005078EDC394015039AB6BAA6CA96D12004D
:100CBD00F96067C37410956AFFE56EC39FE56E50CA
:100CCD00062480256A8004256A24B0FF120FED12D8
:100CDD000F6D7401256DF56DE4356CF56C056E8049
:100CED00C7AB6BAA6CA96D1200F9602EC374109579
:100CFD006AFFE56EC39FE56E500624C0256A800429
:100D0D00256A2470FF120FED120F6D7401256DF51C
:0A0D1D006DE4356CF56C056E80C7BF
:010D270022A9
:10095F00E4F5487590F7E59064F7602C7FE87E0327
:10096F00121045AF90EF2449601124E0601224F07B
:10097F00601324707012754801800D75480580084A
:10098F00754809800375480DE590B4F7FB7590FB2A
:10099F00E59064FB602C7FE87E03121045AF90EF6B
:1009AF002445601124E0601224F06013247070124B
:1009BF00754802800D754806800875480A800375D2
:1009CF00480EE590B4FBFB7590FDE59064FD602C3F
:1009DF007FE87E03121045AF90EF2443601124E0AF
:1009EF00601224F0601324707012754803800D7527
:1009FF004807800875480B800375480FE590B4FDD4
:100A0F00FB7590FEE59064FE602C7FE87E0312106C
:100A1F0045AF90EF2442601124E0601224F0601380
:100A2F0024707012754804800D7548088008754849
:0D0A3F000C8003754810E590B4FEFBAF4835
:010A4C002287
:030E8E00016F01F0
:100E9200EF6003756F01E56F6401702E30B10930A8
:100EA200B00630B20320B3227FE87E03121045E47D
:100EB200F56F20B1037F012220B0037F022220B20E
:100EC200037F032220B3127F042230B10C30B00919
:0B0ED20030B20630B303756F017F00E3
:010EDD0022F2
:100F92008E6A8F6BE56B156BAE6A7002156A4E60D6
:0F0FA2000BB2A57F647E0012104580E8C2A52225
:0B104500EF1FAC0670011E4C70F6227D
:100FCF00D3EF9400EE940040147D6E7C00ED1D7005
:0D0FDF00011CED4C70F7EF1F70E61E80E363
:010FEC0022E2
:03000000020DB539
:0C0DB500787FE4F6D8FD75816F020DFC1C
:10000300E709F608DFFA8046E709F208DFFA803EDF
:1000130088828C83E709F0A3DFFA8032E309F608CC
:10002300DFFA8078E309F208DFFA807088828C8334
:10003300E309F0A3DFFA806489828A83E0A3F608E8
:10004300DFFA805889828A83E0A3F208DFFA804CC2
:1000530080D280FA80C680D4806980F28033801099
:1000630080A680EA809A80A880DA80E280CA803302
:1000730089828A83ECFAE493A3C8C582C8CCC5837A
:10008300CCF0A3C8C582C8CCC583CCDFE9DEE7804A
:100093000D89828A83E493A3F608DFF9ECFAA9F0C9
:1000A300EDFB2289828A83ECFAE0A3C8C582C8CC1F
:1000B300C583CCF0A3C8C582C8CCC583CCDFEADE38
:1000C300E880DB89828A83E493A3F208DFF980CC9A
:1000D30088F0EF60010E4E60C388F0ED2402B40493
:1000E3000050B9F582EB2402B4040050AF2323453A
:0600F3008223900053730C
:1000F900BB010689828A83E0225002E722BBFE0205
:09010900E32289828A83E4932237
:10011200BB010CE58229F582E5833AF583E02250A2
:1001220006E92582F8E622BBFE06E92582F8E222EC
:0D013200E58229F582E5833AF583E4932206
:10013F00BB010FF8E58229F582E5833AF583E028C4
:10014F00F0225009C58229F8E58226F622BBFE0966
:10015F00C58229F8E22582F222F8EA2583F583E9A0
:03016F00932822B0
:10017200BB010689828A83F0225002F722BBFE016C
:02018200F32266
:10018400F8BB010DE58229F582E5833AF583E8F0B1
:10019400225006E92582C8F622BBFE05E92582C85D
:0201A400F22245
:1001A600EF8DF0A4A8F0CF8CF0A428CE8DF0A42E6D
:0201B600FE2227
:1001B800C2D5EC30E709B2D5E4C39DFDE49CFCEE62
:1001C80030E715B2D5E4C39FFFE49EFE12029AC33E
:1001D800E49DFDE49CFC800312029A30D507C3E439
:0601E8009FFFE49EFE22D1
:1001EE00E88FF0A4CC8BF0A42CFCE98EF0A42CFCB0
:1001FE008AF0EDA42CFCEA8EF0A4CDA8F08BF0A42E
:10020E002DCC3825F0FDE98FF0A42CCD35F0FCEB8C
:10021E008EF0A4FEA9F0EB8FF0A4CFC5F02ECD3951
:0F022E00FEE43CFCEAA42DCE35F0FDE43CFC22BE
:0E023D00C3E49FFFE49EFEE49DFDE49CFC22D2
:10024B00BB011A89828A83D0F0D0E0F8D0E0F9D0D4
:10025B00E0FAD0E0FBE8C0E0C0F00202F85016E98B
:10026B00F8D083D082D0E0F9D0E0FAD0E0FBC082A6
:10027B00C0830202EFBBFE16E9F8D083D082D0E038
:0F028B00F9D0E0FAD0E0FBC082C0830203012269
:100DC100020D28E493A3F8E493A34003F68001F213
:100DD10008DFF48029E493A3F85407240CC8C33333
:100DE100C4540F4420C8834004F456800146F6DF02
:100DF100E4800B0102040810204080900E41E47E43
:100E0100019360BCA3FF543F30E509541FFEE493F6
:100E1100A360010ECF54C025E060A840B8E493A3BD
:100E2100FAE493A3F8E493A3C8C582C8CAC583CAE8
:100E3100F0A3C8C582C8CAC583CADFE9DEE780BEA0
:010E91000060
:10029A00BC000BBE0029EF8DF084FFADF022E4CC48
:1002AA00F875F008EF2FFFEE33FEEC33FCEE9DEC11
:1002BA00984005FCEE9DFE0FD5F0E9E4CEFD22ED57
:1002CA00F8F5F0EE8420D21CFEADF075F008EF2FA1
:1002DA00FFED33FD4007985006D5F0F222C398FD92
:0502EA000FD5F0EA222F
:0902EF00EBF608EAF608E9F62234
:0902F800EBF0A3EAF0A3E9F02207
:09030100EBF208EAF208E9F2222D
:00000001FF
